{"contracts/AuditTrail.sol":{"AuditTrail":{"abi":[{"inputs":[],"stateMutability":"nonpayable","type":"constructor"},{"anonymous":false,"inputs":[{"indexed":true,"internalType":"uint256","name":"round","type":"uint256"},{"indexed":true,"internalType":"address","name":"hospital","type":"address"},{"indexed":false,"internalType":"bytes32","name":"updateHash","type":"bytes32"}],"name":"UpdateRecorded","type":"event"},{"inputs":[],"name":"owner","outputs":[{"internalType":"address","name":"","type":"address"}],"stateMutability":"view","type":"function"},{"inputs":[{"internalType":"uint256","name":"_round","type":"uint256"},{"internalType":"bytes32","name":"_updateHash","type":"bytes32"}],"name":"recordUpdate","outputs":[],"stateMutability":"nonpayable","type":"function"},{"inputs":[{"internalType":"address","name":"_hospitalAddress","type":"address"}],"name":"registerHospital","outputs":[],"stateMutability":"nonpayable","type":"function"},{"inputs":[{"internalType":"address","name":"","type":"address"}],"name":"registeredHospitals","outputs":[{"internalType":"bool","name":"","type":"bool"}],"stateMutability":"view","type":"function"}],"evm":{"bytecode":{"linkReferences":{},"object":"608060405234801561001057600080fd5b50336000806101000a81548173ffffffffffffffffffffffffffffffffffffffff021916908373ffffffffffffffffffffffffffffffffffffffff1602179055506105ed806100606000396000f3fe608060405234801561001057600080fd5b506004361061004c5760003560e01c806326fc9787146100515780638da5cb5b14610081578063966096581461009f578063c5b99858146100bb575b600080fd5b61006b60048036038101906100669190610345565b6100d7565b604051610078919061038d565b60405180910390f35b6100896100f7565b60405161009691906103b7565b60405180910390f35b6100b960048036038101906100b4919061043e565b61011b565b005b6100d560048036038101906100d09190610345565b6101fa565b005b60016020528060005260406000206000915054906101000a900460ff1681565b60008054906101000a900473ffffffffffffffffffffffffffffffffffffffff1681565b600160003373ffffffffffffffffffffffffffffffffffffffff1673ffffffffffffffffffffffffffffffffffffffff16815260200190815260200160002060009054906101000a900460ff166101a7576040517f08c379a000000000000000000000000000000000000000000000000000000000815260040161019e906104db565b60405180910390fd5b3373ffffffffffffffffffffffffffffffffffffffff16827f6d0a2de97d95f48b70885281ab26c00ada26e60919e577cb82a38f9f8f9565e9836040516101ee919061050a565b60405180910390a35050565b60008054906101000a900473ffffffffffffffffffffffffffffffffffffffff1673ffffffffffffffffffffffffffffffffffffffff163373ffffffffffffffffffffffffffffffffffffffff1614610288576040517f08c379a000000000000000000000000000000000000000000000000000000000815260040161027f90610597565b60405180910390fd5b60018060008373ffffffffffffffffffffffffffffffffffffffff1673ffffffffffffffffffffffffffffffffffffffff16815260200190815260200160002060006101000a81548160ff02191690831515021790555050565b600080fd5b600073ffffffffffffffffffffffffffffffffffffffff82169050919050565b6000610312826102e7565b9050919050565b61032281610307565b811461032d57600080fd5b50565b60008135905061033f81610319565b92915050565b60006020828403121561035b5761035a6102e2565b5b600061036984828501610330565b91505092915050565b60008115159050919050565b61038781610372565b82525050565b60006020820190506103a2600083018461037e565b92915050565b6103b181610307565b82525050565b60006020820190506103cc60008301846103a8565b92915050565b6000819050919050565b6103e5816103d2565b81146103f057600080fd5b50565b600081359050610402816103dc565b92915050565b6000819050919050565b61041b81610408565b811461042657600080fd5b50565b60008135905061043881610412565b92915050565b60008060408385031215610455576104546102e2565b5b6000610463858286016103f3565b925050602061047485828601610429565b9150509250929050565b600082825260208201905092915050565b7f4e6f742061207265676973746572656420686f73706974616c00000000000000600082015250565b60006104c560198361047e565b91506104d08261048f565b602082019050919050565b600060208201905081810360008301526104f4816104b8565b9050919050565b61050481610408565b82525050565b600060208201905061051f60008301846104fb565b92915050565b7f4f6e6c7920746865206f776e65722063616e2063616c6c20746869732066756e60008201527f6374696f6e000000000000000000000000000000000000000000000000000000602082015250565b600061058160258361047e565b915061058c82610525565b604082019050919050565b600060208201905081810360008301526105b081610574565b905091905056fea2646970667358221220700fa2077516aac7f8cc95c7cdedeedd512bfec888bd3142d75fd8d164c9b5a964736f6c63430008140033","opcodes":"PUSH1 0x80 PUSH1 0x40 MSTORE CALLVALUE DUP1 ISZERO PUSH2 0x10 JUMPI PUSH1 0x0 DUP1 REVERT JUMPDEST POP CALLER PUSH1 0x0 DUP1 PUSH2 0x100 EXP DUP2 SLOAD DUP2 PUSH20 0xFFFFFFFFFFFFFFFFFFFFFFFFFFFFFFFFFFFFFFFF MUL NOT AND SWAP1 DUP4 PUSH20 0xFFFFFFFFFFFFFFFFFFFFFFFFFFFFFFFFFFFFFFFF AND MUL OR SWAP1 SSTORE POP PUSH2 0x5ED DUP1 PUSH2 0x60 PUSH1 0x0 CODECOPY PUSH1 0x0 RETURN INVALID PUSH1 0x80 PUSH1 0x40 MSTORE CALLVALUE DUP1 ISZERO PUSH2 0x10 JUMPI PUSH1 0x0 DUP1 REVERT JUMPDEST POP PUSH1 0x4 CALLDATASIZE LT PUSH2 0x4C JUMPI PUSH1 0x0 CALLDATALOAD PUSH1 0xE0 SHR DUP1 PUSH4 0x26FC9787 EQ PUSH2 0x51 JUMPI DUP1 PUSH4 0x8DA5CB5B EQ PUSH2 0x81 JUMPI DUP1 PUSH4 0x96609658 EQ PUSH2 0x9F JUMPI DUP1 PUSH4 0xC5B99858 EQ PUSH2 0xBB JUMPI JUMPDEST PUSH1 0x0 DUP1 REVERT JUMPDEST PUSH2 0x6B PUSH1 0x4 DUP1 CALLDATASIZE SUB DUP2 ADD SWAP1 PUSH2 0x66 SWAP2 SWAP1 PUSH2 0x345 JUMP JUMPDEST PUSH2 0xD7 JUMP JUMPDEST PUSH1 0x40 MLOAD PUSH2 0x78 SWAP2 SWAP1 PUSH2 0x38D JUMP JUMPDEST PUSH1 0x40 MLOAD DUP1 SWAP2 SUB SWAP1 RETURN JUMPDEST PUSH2 0x89 PUSH2 0xF7 JUMP JUMPDEST PUSH1 0x40 MLOAD PUSH2 0x96 SWAP2 SWAP1 PUSH2 0x3B7 JUMP JUMPDEST PUSH1 0x40 MLOAD DUP1 SWAP2 SUB SWAP1 RETURN JUMPDEST PUSH2 0xB9 PUSH1 0x4 DUP1 CALLDATASIZE SUB DUP2 ADD SWAP1 PUSH2 0xB4 SWAP2 SWAP1 PUSH2 0x43E JUMP JUMPDEST PUSH2 0x11B JUMP JUMPDEST STOP JUMPDEST PUSH2 0xD5 PUSH1 0x4 DUP1 CALLDATASIZE SUB DUP2 ADD SWAP1 PUSH2 0xD0 SWAP2 SWAP1 PUSH2 0x345 JUMP JUMPDEST PUSH2 0x1FA JUMP JUMPDEST STOP JUMPDEST PUSH1 0x1 PUSH1 0x20 MSTORE DUP1 PUSH1 0x0 MSTORE PUSH1 0x40 PUSH1 0x0 KECCAK256 PUSH1 0x0 SWAP2 POP SLOAD SWAP1 PUSH2 0x100 EXP SWAP1 DIV PUSH1 0xFF AND DUP2 JUMP JUMPDEST PUSH1 0x0 DUP1 SLOAD SWAP1 PUSH2 0x100 EXP SWAP1 DIV PUSH20 0xFFFFFFFFFFFFFFFFFFFFFFFFFFFFFFFFFFFFFFFF AND DUP2 JUMP JUMPDEST PUSH1 0x1 PUSH1 0x0 CALLER PUSH20 0xFFFFFFFFFFFFFFFFFFFFFFFFFFFFFFFFFFFFFFFF AND PUSH20 0xFFFFFFFFFFFFFFFFFFFFFFFFFFFFFFFFFFFFFFFF AND DUP2 MSTORE PUSH1 0x20 ADD SWAP1 DUP2 MSTORE PUSH1 0x20 ADD PUSH1 0x0 KECCAK256 PUSH1 0x0 SWAP1 SLOAD SWAP1 PUSH2 0x100 EXP SWAP1 DIV PUSH1 0xFF AND PUSH2 0x1A7 JUMPI PUSH1 0x40 MLOAD PUSH32 0x8C379A000000000000000000000000000000000000000000000000000000000 DUP2 MSTORE PUSH1 0x4 ADD PUSH2 0x19E SWAP1 PUSH2 0x4DB JUMP JUMPDEST PUSH1 0x40 MLOAD DUP1 SWAP2 SUB SWAP1 REVERT JUMPDEST CALLER PUSH20 0xFFFFFFFFFFFFFFFFFFFFFFFFFFFFFFFFFFFFFFFF AND DUP3 PUSH32 0x6D0A2DE97D95F48B70885281AB26C00ADA26E60919E577CB82A38F9F8F9565E9 DUP4 PUSH1 0x40 MLOAD PUSH2 0x1EE SWAP2 SWAP1 PUSH2 0x50A JUMP JUMPDEST PUSH1 0x40 MLOAD DUP1 SWAP2 SUB SWAP1 LOG3 POP POP JUMP JUMPDEST PUSH1 0x0 DUP1 SLOAD SWAP1 PUSH2 0x100 EXP SWAP1 DIV PUSH20 0xFFFFFFFFFFFFFFFFFFFFFFFFFFFFFFFFFFFFFFFF AND PUSH20 0xFFFFFFFFFFFFFFFFFFFFFFFFFFFFFFFFFFFFFFFF AND CALLER PUSH20 0xFFFFFFFFFFFFFFFFFFFFFFFFFFFFFFFFFFFFFFFF AND EQ PUSH2 0x288 JUMPI PUSH1 0x40 MLOAD PUSH32 0x8C379A000000000000000000000000000000000000000000000000000000000 DUP2 MSTORE PUSH1 0x4 ADD PUSH2 0x27F SWAP1 PUSH2 0x597 JUMP JUMPDEST PUSH1 0x40 MLOAD DUP1 SWAP2 SUB SWAP1 REVERT JUMPDEST PUSH1 0x1 DUP1 PUSH1 0x0 DUP4 PUSH20 0xFFFFFFFFFFFFFFFFFFFFFFFFFFFFFFFFFFFFFFFF AND PUSH20 0xFFFFFFFFFFFFFFFFFFFFFFFFFFFFFFFFFFFFFFFF AND DUP2 MSTORE PUSH1 0x20 ADD SWAP1 DUP2 MSTORE PUSH1 0x20 ADD PUSH1 0x0 KECCAK256 PUSH1 0x0 PUSH2 0x100 EXP DUP2 SLOAD DUP2 PUSH1 0xFF MUL NOT AND SWAP1 DUP4 ISZERO ISZERO MUL OR SWAP1 SSTORE POP POP JUMP JUMPDEST PUSH1 0x0 DUP1 REVERT JUMPDEST PUSH1 0x0 PUSH20 0xFFFFFFFFFFFFFFFFFFFFFFFFFFFFFFFFFFFFFFFF DUP3 AND SWAP1 POP SWAP2 SWAP1 POP JUMP JUMPDEST PUSH1 0x0 PUSH2 0x312 DUP3 PUSH2 0x2E7 JUMP JUMPDEST SWAP1 POP SWAP2 SWAP1 POP JUMP JUMPDEST PUSH2 0x322 DUP2 PUSH2 0x307 JUMP JUMPDEST DUP2 EQ PUSH2 0x32D JUMPI PUSH1 0x0 DUP1 REVERT JUMPDEST POP JUMP JUMPDEST PUSH1 0x0 DUP2 CALLDATALOAD SWAP1 POP PUSH2 0x33F DUP2 PUSH2 0x319 JUMP JUMPDEST SWAP3 SWAP2 POP POP JUMP JUMPDEST PUSH1 0x0 PUSH1 0x20 DUP3 DUP5 SUB SLT ISZERO PUSH2 0x35B JUMPI PUSH2 0x35A PUSH2 0x2E2 JUMP JUMPDEST JUMPDEST PUSH1 0x0 PUSH2 0x369 DUP5 DUP3 DUP6 ADD PUSH2 0x330 JUMP JUMPDEST SWAP2 POP POP SWAP3 SWAP2 POP POP JUMP JUMPDEST PUSH1 0x0 DUP2 ISZERO ISZERO SWAP1 POP SWAP2 SWAP1 POP JUMP JUMPDEST PUSH2 0x387 DUP2 PUSH2 0x372 JUMP JUMPDEST DUP3 MSTORE POP POP JUMP JUMPDEST PUSH1 0x0 PUSH1 0x20 DUP3 ADD SWAP1 POP PUSH2 0x3A2 PUSH1 0x0 DUP4 ADD DUP5 PUSH2 0x37E JUMP JUMPDEST SWAP3 SWAP2 POP POP JUMP JUMPDEST PUSH2 0x3B1 DUP2 PUSH2 0x307 JUMP JUMPDEST DUP3 MSTORE POP POP JUMP JUMPDEST PUSH1 0x0 PUSH1 0x20 DUP3 ADD SWAP1 POP PUSH2 0x3CC PUSH1 0x0 DUP4 ADD DUP5 PUSH2 0x3A8 JUMP JUMPDEST SWAP3 SWAP2 POP POP JUMP JUMPDEST PUSH1 0x0 DUP2 SWAP1 POP SWAP2 SWAP1 POP JUMP JUMPDEST PUSH2 0x3E5 DUP2 PUSH2 0x3D2 JUMP JUMPDEST DUP2 EQ PUSH2 0x3F0 JUMPI PUSH1 0x0 DUP1 REVERT JUMPDEST POP JUMP JUMPDEST PUSH1 0x0 DUP2 CALLDATALOAD SWAP1 POP PUSH2 0x402 DUP2 PUSH2 0x3DC JUMP JUMPDEST SWAP3 SWAP2 POP POP JUMP JUMPDEST PUSH1 0x0 DUP2 SWAP1 POP SWAP2 SWAP1 POP JUMP JUMPDEST PUSH2 0x41B DUP2 PUSH2 0x408 JUMP JUMPDEST DUP2 EQ PUSH2 0x426 JUMPI PUSH1 0x0 DUP1 REVERT JUMPDEST POP JUMP JUMPDEST PUSH1 0x0 DUP2 CALLDATALOAD SWAP1 POP PUSH2 0x438 DUP2 PUSH2 0x412 JUMP JUMPDEST SWAP3 SWAP2 POP POP JUMP JUMPDEST PUSH1 0x0 DUP1 PUSH1 0x40 DUP4 DUP6 SUB SLT ISZERO PUSH2 0x455 JUMPI PUSH2 0x454 PUSH2 0x2E2 JUMP JUMPDEST JUMPDEST PUSH1 0x0 PUSH2 0x463 DUP6 DUP3 DUP7 ADD PUSH2 0x3F3 JUMP JUMPDEST SWAP3 POP POP PUSH1 0x20 PUSH2 0x474 DUP6 DUP3 DUP7 ADD PUSH2 0x429 JUMP JUMPDEST SWAP2 POP POP SWAP3 POP SWAP3 SWAP1 POP JUMP JUMPDEST PUSH1 0x0 DUP3 DUP3 MSTORE PUSH1 0x20 DUP3 ADD SWAP1 POP SWAP3 SWAP2 POP POP JUMP JUMPDEST PUSH32 0x4E6F742061207265676973746572656420686F73706974616C00000000000000 PUSH1 0x0 DUP3 ADD MSTORE POP JUMP JUMPDEST PUSH1 0x0 PUSH2 0x4C5 PUSH1 0x19 DUP4 PUSH2 0x47E JUMP JUMPDEST SWAP2 POP PUSH2 0x4D0 DUP3 PUSH2 0x48F JUMP JUMPDEST PUSH1 0x20 DUP3 ADD SWAP1 POP SWAP2 SWAP1 POP JUMP JUMPDEST PUSH1 0x0 PUSH1 0x20 DUP3 ADD SWAP1 POP DUP2 DUP2 SUB PUSH1 0x0 DUP4 ADD MSTORE PUSH2 0x4F4 DUP2 PUSH2 0x4B8 JUMP JUMPDEST SWAP1 POP SWAP2 SWAP1 POP JUMP JUMPDEST PUSH2 0x504 DUP2 PUSH2 0x408 JUMP JUMPDEST DUP3 MSTORE POP POP JUMP JUMPDEST PUSH1 0x0 PUSH1 0x20 DUP3 ADD SWAP1 POP PUSH2 0x51F PUSH1 0x0 DUP4 ADD DUP5 PUSH2 0x4FB JUMP JUMPDEST SWAP3 SWAP2 POP POP JUMP JUMPDEST PUSH32 0x4F6E6C7920746865206F776E65722063616E2063616C6C20746869732066756E PUSH1 0x0 DUP3 ADD MSTORE PUSH32 0x6374696F6E000000000000000000000000000000000000000000000000000000 PUSH1 0x20 DUP3 ADD MSTORE POP JUMP JUMPDEST PUSH1 0x0 PUSH2 0x581 PUSH1 0x25 DUP4 PUSH2 0x47E JUMP JUMPDEST SWAP2 POP PUSH2 0x58C DUP3 PUSH2 0x525 JUMP JUMPDEST PUSH1 0x40 DUP3 ADD SWAP1 POP SWAP2 SWAP1 POP JUMP JUMPDEST PUSH1 0x0 PUSH1 0x20 DUP3 ADD SWAP1 POP DUP2 DUP2 SUB PUSH1 0x0 DUP4 ADD MSTORE PUSH2 0x5B0 DUP2 PUSH2 0x574 JUMP JUMPDEST SWAP1 POP SWAP2 SWAP1 POP JUMP INVALID LOG2 PUSH5 0x6970667358 0x22 SLT KECCAK256 PUSH17 0xFA2077516AAC7F8CC95C7CDEDEEDD512B INVALID 0xC8 DUP9 0xBD BALANCE TIMESTAMP 0xD7 PUSH0 0xD8 0xD1 PUSH5 0xC9B5A96473 PUSH16 0x6C634300081400330000000000000000 "},"methodIdentifiers":{"owner()":"8da5cb5b","recordUpdate(uint256,bytes32)":"96609658","registerHospital(address)":"c5b99858","registeredHospitals(address)":"26fc9787"}}}}}