{
  "_format": "hh-sol-artifact-1",
  "contractName": "AuditTrail",
  "sourceName": "contracts/AuditTrail.sol",
  "abi": [
    {
      "inputs": [],
      "stateMutability": "nonpayable",
      "type": "constructor"
    },
    {
      "anonymous": false,
      "inputs": [
        {
          "indexed": true,
          "internalType": "uint256",
          "name": "round",
          "type": "uint256"
        },
        {
          "indexed": true,
          "internalType": "address",
          "name": "hospital",
          "type": "address"
        },
        {
          "indexed": false,
          "internalType": "bytes32",
          "name": "updateHash",
          "type": "bytes32"
        }
      ],
      "name": "UpdateRecorded",
      "type": "event"
    },
    {
      "inputs": [],
      "name": "owner",
      "outputs": [
        {
          "internalType": "address",
          "name": "",
          "type": "address"
        }
      ],
      "stateMutability": "view",
      "type": "function"
    },
    {
      "inputs": [
        {
          "internalType": "uint256",
          "name": "_round",
          "type": "uint256"
        },
        {
          "internalType": "bytes32",
          "name": "_updateHash",
          "type": "bytes32"
        }
      ],
      "name": "recordUpdate",
      "outputs": [],
      "stateMutability": "nonpayable",
      "type": "function"
    },
    {
      "inputs": [
        {
          "internalType": "address",
          "name": "_hospitalAddress",
          "type": "address"
        }
      ],
      "name": "registerHospital",
      "outputs": [],
      "stateMutability": "nonpayable",
      "type": "function"
    },
    {
      "inputs": [
        {
          "internalType": "address",
          "name": "",
          "type": "address"
        }
      ],
      "name": "registeredHospitals",
      "outputs": [
        {
          "internalType": "bool",
          "name": "",
          "type": "bool"
        }
      ],
      "stateMutability": "view",
      "type": "function"
    }
  ],
  "bytecode": "0x608060405234801561001057600080fd5b50336000806101000a81548173ffffffffffffffffffffffffffffffffffffffff021916908373ffffffffffffffffffffffffffffffffffffffff1602179055506105ed806100606000396000f3fe608060405234801561001057600080fd5b506004361061004c5760003560e01c806326fc9787146100515780638da5cb5b14610081578063966096581461009f578063c5b99858146100bb575b600080fd5b61006b60048036038101906100669190610345565b6100d7565b604051610078919061038d565b60405180910390f35b6100896100f7565b60405161009691906103b7565b60405180910390f35b6100b960048036038101906100b4919061043e565b61011b565b005b6100d560048036038101906100d09190610345565b6101fa565b005b60016020528060005260406000206000915054906101000a900460ff1681565b60008054906101000a900473ffffffffffffffffffffffffffffffffffffffff1681565b600160003373ffffffffffffffffffffffffffffffffffffffff1673ffffffffffffffffffffffffffffffffffffffff16815260200190815260200160002060009054906101000a900460ff166101a7576040517f08c379a000000000000000000000000000000000000000000000000000000000815260040161019e906104db565b60405180910390fd5b3373ffffffffffffffffffffffffffffffffffffffff16827f6d0a2de97d95f48b70885281ab26c00ada26e60919e577cb82a38f9f8f9565e9836040516101ee919061050a565b60405180910390a35050565b60008054906101000a900473ffffffffffffffffffffffffffffffffffffffff1673ffffffffffffffffffffffffffffffffffffffff163373ffffffffffffffffffffffffffffffffffffffff1614610288576040517f08c379a000000000000000000000000000000000000000000000000000000000815260040161027f90610597565b60405180910390fd5b60018060008373ffffffffffffffffffffffffffffffffffffffff1673ffffffffffffffffffffffffffffffffffffffff16815260200190815260200160002060006101000a81548160ff02191690831515021790555050565b600080fd5b600073ffffffffffffffffffffffffffffffffffffffff82169050919050565b6000610312826102e7565b9050919050565b61032281610307565b811461032d57600080fd5b50565b60008135905061033f81610319565b92915050565b60006020828403121561035b5761035a6102e2565b5b600061036984828501610330565b91505092915050565b60008115159050919050565b61038781610372565b82525050565b60006020820190506103a2600083018461037e565b92915050565b6103b181610307565b82525050565b60006020820190506103cc60008301846103a8565b92915050565b6000819050919050565b6103e5816103d2565b81146103f057600080fd5b50565b600081359050610402816103dc565b92915050565b6000819050919050565b61041b81610408565b811461042657600080fd5b50565b60008135905061043881610412565b92915050565b60008060408385031215610455576104546102e2565b5b6000610463858286016103f3565b925050602061047485828601610429565b9150509250929050565b600082825260208201905092915050565b7f4e6f742061207265676973746572656420686f73706974616c00000000000000600082015250565b60006104c560198361047e565b91506104d08261048f565b602082019050919050565b600060208201905081810360008301526104f4816104b8565b9050919050565b61050481610408565b82525050565b600060208201905061051f60008301846104fb565b92915050565b7f4f6e6c7920746865206f776e65722063616e2063616c6c20746869732066756e60008201527f6374696f6e000000000000000000000000000000000000000000000000000000602082015250565b600061058160258361047e565b915061058c82610525565b604082019050919050565b600060208201905081810360008301526105b081610574565b905091905056fea2646970667358221220700fa2077516aac7f8cc95c7cdedeedd512bfec888bd3142d75fd8d164c9b5a964736f6c63430008140033",
  "linkReferences": {},
  "deployedLinkReferences": {}
}